:020000040800F2
:1000000000A00020A57D0008296600082D660008D4
:1000100031660008356600083966000800000000F7
:100020000000000000000000000000007156000801
:100030003D660008000000000157000865570008F1
:10004000E97D0008E97D0008E97D0008E97D0008F8
:10005000E97D0008E97D000801350008E97D000818
:10006000E97D0008E97D0008E97D00088D81000830
:10007000E9810008E97D00080D820008E97D00089B
:10008000E97D0008298200081D550008E97D000867
:1000900041660008E97D0008E97D00084566000822
:1000A000E97D0008E97D0008E97D0008E97D000898
:1000B000E97D0008E97D0008E97D0008E1120008FB
:1000C000E97D0008E97D0008E97D0008311100089C
:1000D000E97D0008E97D0008E97D0008E97D000868
:1000E000E97D0008E97D000885660008E97D0008D3
:1000F000E97D0008E97D0008E97D0008E97D000848
:10010000000000000000000000000000E97D000881
:10011000E97D0008E97D0008797F0008E97D000895
:10012000E97D0008E97D000851820008E97D0008AA
:100130006D820008E97D000800000000000000005A
:10014000E97D0008E97D0008E97D00080000000065
:10015000000000000000000000000000000000009F
:100160000000000000000000E97D0008E97D0008B3
:10017000E97D000800000000000000000000000011
:1001800000000000E97D0008014B1860704700BFC7
:1001900000300040014B5860704700BF0030004005
:1001A000014B9860704700BF00300040024B4AF698
:1001B000AA221A60704700BF00300040024B4CF684
:1001C000CC421A60704700BF0030004008B538B11B
:1001D000064B1B681B689847054B18680A3008BD1A
:1001E000034B1B6801221A8208BD00BFE0500020AB
:1001F000E450002008B538B1064B1B689B6898474F
:10020000054B18680C3008BD034B1B6801221A828D
:1002100008BD00BFE0500020E450002008B51F4B8F
:10022000002832D01E481A6800210180137813F08C
:100230007F0316D0012B27D0022B24D1527902F054
:100240000F039B0003F1804303F5B84312061B68BC
:100250001FD403F44053B3F5805F0ED10123037024
:100260000BE0527A930654BF0378022351064CBF29
:1002700043F0010323F0010303700A4B1B681B6961
:100280009847074808BD084608BD1B6802221A8225
:1002900008BD03F03003102BEFD1DFE7E45000205E
:1002A000DC470020E05000202DE9F041244F3C685D
:1002B000258A2DB9267A042E2AD0A38A042603E0A3
:1002C000A38A9D42FAD902269D4228BF1D46284690
:1002D000A36998478046002002F04CF82A46014660
:1002E000404607F07DFE2946002002F063F8638A4D
:1002F000228A14481449521B1D4430230380228251
:1003000065824FF440533C680B802672BDE8F08153
:100310000E4B1A78012A06D00A4B072610222672A5
:100320001A80BDE8F0810A490A4A0968054889B27D
:100330000A4452003021158055801D700180E4E789
:10034000E45000208E5000208C500020240A002011
:10035000505C00400230002038B52F4B1B681878E5
:1003600010F07F0003D0022806D0022038BD5A7A50
:1003700022F020025A7238BD5A88002AF6D11A7922
:10038000002AF3D15A7922F08000840004F18044DD
:10039000150604F5B844214D21682D784CBF01F0B5
:1003A000300101F44051A842DFD20029DDD09B7A10
:1003B000002BDAD01206236809D503F03003102B86
:1003C0001ED0174B1B685B699847002038BD03F4AB
:1003D0004053B3F5805FF4D1D8B9124B93F82C1089
:1003E00001F0F6FF236823F4804323F070039BB2EF
:1003F00083F4405343F4004343F080032360E0E779
:10040000C4B2204601F084FF2046302101F002FFF3
:10041000D7E701F06BFFE5E7E4500020640100201E
:10042000E05000209000002038B5204B1C68617916
:1004300021F08000830003F180430D0603F5B843EB
:100440001B4D1A682D784CBF02F0300202F4405266
:10045000A84201D3022038BD60880028FAD1002AC2
:10046000F8D0A27A002AF5D009061A6811D522F42C
:10047000E04222F0400292B282F0100242F40042C6
:1004800042F080021A600B4B1B689B699847002062
:1004900038BD22F4804222F0700292B282F480527F
:1004A00042F4004242F080021A60ECE7E45000207F
:1004B00064010020E0500020054B1A68538A10B1F7
:1004C0000868184470478988CB1A1382704700BFA8
:1004D000E4500020F0B5A84EA84B34681A68237A7F
:1004E000092B83B03AD0A64B92B213445B001D682F
:1004F000ADB26D0005F1804505F5C0452B78237040
:100500006B786370A88801F085FF60802889376860
:1005100001F080FFB8803468AB89E3800122227249
:100520000BB36078062800F0948000284BD16188D6
:10053000002900F0A680934D2B681B69984703287B
:10054000336800F09B801A8A4FF6FF718A4200F0F0
:100550009580022847D108221A721CE0E388012204
:100560002272002BDDD12278677812F07F0247D00B
:10057000012A00F0D280022A00F02A81814D2B68E6
:1005800038465B699847032800F054813468002896
:1005900051D0082323727C4B002093F82C1001F0DB
:1005A00017FF3368187A082806D17849784B4FF43A
:1005B000805410220C801A80A0F10900B0FA80F05B
:1005C000400903B0F0BD08286DD123785B06B2D195
:1005D000704BA36100206082984733681A8A4FF6F7
:1005E000FF718A424AD0002AB5D093F90010002941
:1005F0007CDB66494FF44050032208801A72CAE738
:10060000092F00F0FF80052F00F0D080032F00F0AD
:10061000E780012FB2D1E278012AAFD1A288002A67
:10062000ACD1627A9206A9D55B4A5360FFF794FE7B
:100630000028A3D13468514A584B1268544992B2E9
:1006400013445B00002230201A805A800880062361
:10065000A0E723785D067FF46EAFA378494D012BA8
:1006600000F0E580022B00F08380032B7FF464AF61
:100670002B685B6A002BACD106205DE709221A7259
:1006800089E7636823F47F43B3F5003F7FF453AFFA
:10069000207810F07F0040F0D080A388002B7FF4FA
:1006A0004AAF3F4B95E70A287FF445AF237803F024
:1006B0007F03012B7FF43FAFA37A002B3FF43BAFC6
:1006C000618800297FF437AF63682E4D23F47F43A0
:1006D000B3F5803F7FF430AF2B6860799B69984712
:1006E000002840F0ED8034682E4B72E7D9880191E4
:1006F0000198824235D8914240F2A680214909688A
:1007000091F82C0081B2914240F2A380224A00204D
:1007100010709982FFF7C8FD3DE70B2F194D7FF44C
:100720002EAF2B68E17860799B69134C984733684A
:100730009A7A002A3FF423AF00287FF420AF1A7979
:10074000002A7FF41CAF9B78002B7FF418AF164B68
:100750001B68DB68984724686279E378E272237348
:1007600069E7084A01991268198292F82C10D0E7BB
:100770002B681B6A7EE700BFE4500020505C0040FD
:1007800004300020BC500020900000208C5000203D
:100790008E500020CD010008240A002002300020E5
:1007A0001D020008F5010008E050002094F9033014
:1007B000002BFFF6EEAEA378002B7FF4EAAEA38801
:1007C000002B7FF4E6AEA37A002B3FF434AFE0E6D3
:1007D000012F63D0032F7FF4D1AEFFF725FE27E76B
:1007E000E378012B7FF4CAAEA388002B7FF4C6AE5A
:1007F000637A354A43F0200312686372D3699847DD
:10080000346818E7314AE37852789A42FFF4B6AE7A
:10081000A278002A7FF4B2AEA288002A7FF4AEAE9E
:10082000294AA37213685B689847346803E72B680A
:10083000DB691FE734680923ACE6012833D00228BE
:1008400012D00846224D77E6214A126892F82C1001
:100850005FE792FBF0F400FB1422002A7FF459AF0B
:100860001C4A0120107054E7607900F00F029300D9
:1008700003F18043010603F5B84314491B68097866
:100880004CBF03F0300303F440538A4209D210F006
:10089000700006D1002B7FF404AF4CE6FFF75CFD3F
:1008A000C6E6002047E60A4D60792B689B699847A9
:1008B00030B93468A37A002B7FF4F3AE60783BE65E
:1008C0003368587838E600BFE0500020640100200B
:1008D000BC500020240A0020F8B5284C23681A7A5E
:1008E000022A26D0042A24D0062A18D00821244A15
:1008F0001972002092F82C1001F06AFD2368187A12
:10090000082806D11F49204B4FF4805410220C8038
:100910001A80A0F10900B0FA80F04009F8BD5A78B9
:10092000052A0BD0194B1B689B6898472368082140
:10093000DDE7FFF7B9FC2368197AD8E71A7812F0D7
:100940007F02EFD11249DF780E7876B11148056841
:1009500042F4004140F60F732B4041F08001013218
:100960000B43964240F8043BF1D10B4B0B4A1B68FA
:1009700047F0800717601B6A9847D3E7E4500020D0
:10098000900000208C5000208E500020BC50002091
:1009900064010020005C0040E05000204C5C0040FE
:1009A000F8B5424D2C68237A022B07D0042B05D0D2
:1009B000032B1CD0052B1AD0072B4FD008233C4A01
:1009C0002372002092F82C1001F002FD2B68187A97
:1009D000082806D13749384B4FF4805410220C8038
:1009E0001A80A0F10900B0FA80F04009F8BDA369AF
:1009F000228AB3B1B2B1A68A964228BF16463046C3
:100A00009847228A638A921B334407462282638274
:100A1000002001F0BFFC32460146384607F0F4FAE8
:100A2000228A12BBA38A002B2ED0234E234B2A6886
:100A30001B68062111729B6898472C68237A082B43
:100A40002CD01F4A1F4B126892B213445B00002245
:100A50001A805A803022237A3280B0E7174B1B6805
:100A6000DB6898472C680823A9E7124B124E002137
:100A70004FF4405208461A8001F09CFC238AA28A57
:100A800030219A42318003D82C680323237296E7E1
:100A9000002BCBD02C680523237290E705494FF437
:100AA000805010220880328089E700BFE450002087
:100AB000900000208C5000208E500020BC50002060
:100AC000505C00400230002070B40C4B1E787EB1A8
:100AD0000B4C0022256842F4004140F60F732B4076
:100AE00041F0800101320B43964244F8043BF1D1BE
:100AF000044B40F08000186070BC70476401002017
:100B0000005C00404C5C0040704700BF00000000EB
:100B100070B5C74C2DED028B23681A78597842EADC
:100B2000012109B28AB200291A86C0F26B81002124
:100B300083F836101F2A9DBF00200246188610B287
:100B400009B9524210B293F82610588503EB4102BE
:100B50000131C9B2022990828ABF002283F826108F
:100B600083F82620B3F91610B3F91420B3F918004E
:100B70009142C0F20A81824240F36281914240F385
:100B800004818A42A8BF0A465A859A78D97842EAEF
:100B9000012109B28AB200295A86C0F21F810021C0
:100BA0005A8E83F837101F2A9DBF002002465886B0
:100BB00010B209B9524210B293F82710988503EB8E
:100BC00041020131C9B2022950838ABF002283F851
:100BD000271083F82720B3F91A10B3F91C20B3F9B2
:100BE0001E00914240F3EE80824240F32F818A4200
:100BF000A8BF0A469A851A79597942EA012109B2B1
:100C00008AB200299A86C0F2F380002283F8382045
:100C100011469A8E1F2A97BF002010B2024698866E
:100C200009B9524210B293F82810D88503EB41025B
:100C30000131C9B2022910848ABF002283F828102A
:100C400083F82820B3F92010B3F92220B3F9240047
:100C5000914240F3B180824240F3BA808A42A8BFF9
:100C60000A46DA85B3F92A20002A00F0968007EEBA
:100C7000902AB3F92C20F8EEE77A012A67EEA77ADA
:100C800000F0948007EE102AB8EEC78A28EE080A12
:100C9000B3F92E30674E07EE103A77EE807AB8EE51
:100CA000C77A3568E7EE077AB1EEE70AB4EE400A94
:100CB000F1EE10FA40F0D58088EE000A07F052FEFF
:100CC000DFED5D7A60EE277A17EE900A0CF0D8FE21
:100CD00055A3D3E900230DF051F80DF0FDF9236879
:100CE000A860B3F92C20356800EE102AB3F92A2049
:100CF000B3F92E3008EE102AB8EEC00AB8EEC88A52
:100D000020EE000A07EE903AA8EE080AF8EEE77A1D
:100D1000A7EEA70AF1EEC07AF4EE677AF1EE10FAC8
:100D200040F09A8088EE270A07F01CFEDFED427A39
:100D300060EE277A17EE900A0CF0A2FE3AA3D3E9F0
:100D400000230DF01BF80DF0C7F922683168B2F9E5
:100D50002A40B2F92C30B2F92E20384EE860BDECB2
:100D6000028B002CB8BF644283EAE370002AA0EB38
:100D7000E370B8BF524200230C8048808A803068FC
:100D80001A46BDE8704004F0C9BE8842FFF6F9AECD
:100D90008242A8BF02465A85F7E601225A85B3F976
:100DA0002C20012AF7EE007A7FF46CAFB7EE008AB0
:100DB000B0EE480A9A856BE781420ADD9142FFF660
:100DC0004DAF48E7814227DD9142FFF610AF0BE7B8
:100DD0000A468242A8BF0246DA8543E7C2F30E0202
:100DE000C2F5004292B201215A8683F83710DAE642
:100DF000C2F30E02C2F5004292B201219A8683F834
:100E0000381007E7C2F30E02C2F5004292B2012188
:100E10001A8683F836108DE68242A8BF02469A856C
:100E2000E9E600BFAFF300801F85EB51B81E094013
:100E3000384800204048002000003443F45000208F
:100E40000A468242A8BF02465A859EE681420A4669
:100E5000A8BF02469A85CEE607F0E4FDF0EE407AA0
:100E600060E7B0EE670A07F0DDFD25E72DE9F04108
:100E70003F4C4048404FDFF80C81012102F090FACE
:100E80002368002200269A60DA6035464FF0FF3171
:100E9000386805F0D9F9236893F8450000F0F2F9B5
:100EA0000221364804F0A2F9102190B9334804F029
:100EB0009DF90028F4D0324A3048938A9BB243F41B
:100EC00000539382012104F069F90A2003F0CCFC5D
:100ED000E1E7236829482B44334493F83D1004F09C
:100EE00079F98021254804F081F90028F9D0012101
:100EF000224804F053F92021204804F077F9002813
:100F0000F9D01E48202104F077F9236893F84500B2
:100F100000F0D0F94021194804F068F9102128B9EF
:100F2000164804F063F90028F4D0C4E701211348FF
:100F300004F034F92021114804F058F90028F9D0C0
:100F400020210E4804F058F97EB10235EDB200269A
:100F5000042DA0D94FF0FF31D8F80000002605F08D
:100F600073F93546FFF7D4FD90E70126F0E700BF9F
:100F700038480020800002404851002000540040C2
:100F800000100048F8500020F0B4244A244B2548B3
:100F9000254C13603227282629252A22002183F890
:100FA000457083F83D602B272C2683F83E5083F84C
:100FB0003F202D25002283F8407083F8416083F89C
:100FC00042501A705A709A829A839A8483F8262023
:100FD00083F8272083F828205A859A85DA8583F8B4
:100FE000362083F8372083F8382083F83A2083F8B6
:100FF0003B2083F844201A865A869A8683F8392043
:101000009960D960196120609964D9640280428036
:1010100082808160C160F0BC704700BF384800200A
:10102000E447002048480020404800202DE9F041D6
:10103000012188B04FF4003000F0A4FB0026E0232B
:101040000227032501A94FF0904001938DF8095024
:101050008DF808708DF80A6001F056FC05221146E3
:101060004FF0904001F0B8FC052206214FF090406F
:1010700001F0B2FC052207214FF0904001F0ACFCDA
:10108000012403A94FF0080827488DF811508DF866
:1010900012608DF81040CDF80C8001F035FC4FF453
:1010A000407004F021F9232303A8204D8DF80C3063
:1010B0008DF80D808DF80E608DF80F4004F01EF94C
:1010C00021464FF4805000F06BFB4FF4E0634FF487
:1010D000007E03A928461022ADF810304FF4827329
:1010E000ADF816E0ADF80E30ADF81820ADF812707E
:1010F000ADF80C60ADF8144003F064FF22462146C1
:10110000284603F0C3FF2146284603F0A1FF2846E6
:101110004FF4805103F0AAFF32462846602103F0C5
:10112000BFFF08B0BDE8F08100100048003001406A
:1011300000B583B002A9002341F8043D054B1868AF
:1011400004F0A6FE6021044803F0C0FF03B05DF880
:1011500004FB00BF145100200030014038B50546A3
:101160000C461848082101F033FC0221164803F010
:10117000A7FF0028F9D02946134803F083FF012177
:10118000114803F09DFF0028F9D00F4803F07CFFC1
:1011900002210D4803F094FF0028F9D021460A48A7
:1011A00003F070FF0121084803F08AFF0028F9D0FE
:1011B000054803F069FF08210248BDE8384001F006
:1011C00005BC00BF0010004800300140F0B58BB0F6
:1011D0000AAF284B47F81C3D274C284D384604F0F1
:1011E0008DF801214FF4802000F0CCFA0126022373
:1011F0002046C02201A98DF809308DF808300192EF
:101200008DF80A608DF80B6001F07EFB2046042209
:10121000062101F0E1FB04222046072101F0DCFB5E
:10122000284603F057FF31464FF4001000F0C6FA8D
:10123000002000F083FA0024082339462846104A8B
:10124000079303920494089406940594099403F078
:101250005FFF22462846722103F096FF3246284659
:101260004FF4004103F0B8FF3146284603F082FFF7
:101270000BB0F0BD1F0800010004004800540040FE
:101280001C1842B010B54FF4004182B00446084823
:1012900003F0ACFF48B94FF40053009321464FF0E0
:1012A00080730122024803F083FF02B010BD00BF2B
:1012B0000054004010B54FF4004182B00446074886
:1012C00003F094FF40B94FF41052034600922146B8
:1012D0000122024803F06CFF02B010BD0054004030
:1012E000704700BFF0B5074683B00E4615464FF471
:1012F0000041244803F07AFF0028F8D14FF400544D
:10130000034639461F480094022203F051FF102182
:101310001C4803F06BFF08B91B4B9C820121194844
:1013200003F064FF0028F9D03146164803F052FF5D
:101330000121144803F05AFF0028F9D0124B11483C
:101340004FF4804229469A8203F044FF01210D4860
:1013500003F04CFF0028F9D00B4B0A484FF4004231
:101360009A82012103F01AFF2021064803F03EFF74
:101370000028F9D00348202103B0BDE8F04003F075
:101380003BBF00BF0054004000100048114B124A00
:101390001868124940F001001860586802405A600D
:1013A0001A6822F0847222F480321A601A6822F4D9
:1013B00080221A605A6822F4FE025A60DA6A22F425
:1013C0007F5222F03F02DA62186B0022014019635B
:1013D0009A6070470010024000C0FFF8CCFC000F7C
:1013E000024B00221A701870704700BF02100240B2
:1013F000014B1860704700BF80044242044A5368A2
:1014000023F47413536053681943084350607047C2
:1014100000100240014B1860704700BF600042425C
:10142000034AD36A23F00F031843D062704700BF0A
:1014300000100240034A536823F00303184350602E
:10144000704700BF00100240034A536823F0F003C6
:1014500018435060704700BF00100240034A5368B1
:1014600023F4E06318435060704700BF001002404F
:10147000034A536823F4605343EAC0005060704746
:1014800000100240A14A536803F00C03042BF0B58E
:1014900000F00381082B00F0ED809D4A026003B14B
:1014A00000239A4D9B4C6968DFF860C2C1F30311B9
:1014B00014F801E05FFA8EFE22FA0EF141606E68C8
:1014C000C6F30226A65D21FA06F686606F68C7F3AA
:1014D000C227E75DFFB2F940C160ED6AC5F30415AC
:1014E00004EB45052D8AADB215F0100F0CBF154663
:1014F000B3FBF5F50561DCF82C50C5F3442504EB8E
:101500004504248AA4B2E50658BF14467F4D48BF5F
:10151000B3FBF4F44461D5F830C07D4C1CF0100FDF
:101520000CBFA4469446C0F818C0D5F830C01CF0D3
:10153000200F18BF1446C4612C6BE40538D59342C4
:1015400000F0AF8001622B6B0C46704B44621C6B49
:10155000A4077DD181626D4B196B11F4403F62D1BC
:10156000C6626A4B196B11F4402F47D10663674B73
:10157000196B11F4401F24D14663644B196B11F4AD
:10158000400F39D0196B01F44001B1F5800F00F024
:10159000A7801A6B02F44002B2F5000F00F0B2808F
:1015A0001B6B03F44003B3F5400F00F08E80F0BDD9
:1015B00001622C6BA50502D5934200F081800C4698
:1015C000C3E7196B01F44011B1F5801F00F086806C
:1015D000196B01F44011B1F5001F00F087801B6BFF
:1015E00003F44013B3F5401F04BF494B4363474B1B
:1015F000196B11F4400FC5D18663F0BD196B01F46E
:101600004021B1F5802F67D0196B01F44021B1F56D
:10161000002F67D01B6B03F44023B3F5402F04BFAA
:101620003B4B0363A3E7196B01F44031B1F5803FF5
:1016300050D0196B01F44031B1F5003F5ED01B6B07
:1016400003F44033B3F5403F04BF314BC36288E736
:10165000196B01F0030101293AD0196B01F0030164
:10166000022947D01B6B03F00303032B04BF284B55
:10167000836270E753685468C3F38343991CE303A0
:101680001AD5D36A224A03F00F030133B2FBF3F3F6
:1016900001FB03F303601A4603E71D4A02600023BF
:1016A000FFE6BE457FF44EAF540004622B6B13F48B
:1016B000007F08BF0C4648E7174B03FB01F3E9E73F
:1016C000BE457FF47CAF54003FE7114B8363F0BD10
:1016D000826240E7C26244E7026348E742634CE744
:1016E0008263F0BD4FF40043036340E74FF40043CF
:1016F000436342E74FF4004383622CE74FF4004317
:10170000C3622EE74FF400438363F0BD0010024034
:1017100000127A000000002000093D00064A030F75
:10172000D36A14BF23F4785323F4F873D362024AC4
:10173000D36A1843D062704700100240064A030F74
:10174000136B14BF23F0200323F010031363024A2A
:10175000136B18431063704700100240014B186070
:10176000704700BFD8004242024A136A1843106211
:10177000704700BF00100240014B1860704700BF67
:101780003C04424229B9054A536923EA00005061EA
:101790007047024B5A69104358617047001002406D
:1017A00029B9054A936923EA000090617047024B0A
:1017B0009A691043986170470010024029B9054AA0
:1017C000D36923EA0000D0617047024BDA69104305
:1017D000D86170470010024029B9054A136923EA0D
:1017E000000010617047024B1A691043186170477E
:1017F00000100240044B1A69120603D50349044A3B
:1018000059605A60704700BF0020024023016745BD
:10181000AB89EFCD024A136943F08003136170472F
:101820000020024010B4354CE368DA0724D4E368A2
:10183000DB0604D5022210465DF8044B7047E368CE
:10184000590737D42D4B1A6942F002021A615861C8
:101850001A6942F040021A61DA68D0072CD4DA68BB
:10186000D10643D5022225495DF8044B0B6923F0CC
:10187000020310460B6170474FF43023E2681F49A2
:10188000D2070AD4CA68D4060AD50222012B0ED187
:10189000052210465DF8044B7047013BEED1F7E797
:1018A000CA6812F0040F14BF03220422EEE7042AD0
:1018B000C8D0C0E70322BEE718464FF43023C26801
:1018C0000E49D40707D4CA68D20608D50222012BD4
:1018D00008BF0522C7E7013BF1D10522C3E7CA686B
:1018E00012F0040F0CBF04220322F0E7DB6813F0B0
:1018F000040F0CBF04220322B5E700BF0020024002
:1019000030B482B00023484D0193EB68DA0721D44C
:10191000EB68DB0604D50222104602B030BC7047EB
:10192000EB685C0734D4404D2A698BB242F0010267
:101930002A610380EB68DC072CD4EB68DB0656D504
:10194000022239490B69104623F001030B6102B0F2
:1019500030BC70474FF43023EA68334CD2070AD4C6
:10196000E268D5060AD50222012B0ED105221046C7
:1019700002B030BC7047013BEED1F7E7E26812F0ED
:10198000040F14BF03220422EEE7042ACBD0C3E7DE
:101990000322C1E74FF43023EA68234CD20707D46F
:1019A000E268D20607D50222012B0BD10522C8E737
:1019B000013BF1D1FAE7E26812F0040F0CBF0422F8
:1019C0000322F1E7042ABCD102300190019B1648A2
:1019D000090C1980C368DB070ED4C368DD06AFD4D9
:1019E000C36813F0040F0CBF04220322A9E7EB68BD
:1019F0005C07E9D50322A4E74FF43023C2680A4903
:101A0000D40707D4CA68D20607D50222012B08BF23
:101A1000052296E7013BF1D1C8E7CA6812F0040F2E
:101A20000CBF04220322F1E70020024038B500F584
:101A3000003084020D46FFF7DDFE2046FFF7F2FE80
:101A400029462046FFF75CFFBDE83840FFF7E2BEBD
:101A500000F5003080020068704700BF10B43E4CB3
:101A60003E4BD4F888003E4A3E4940F47000C4F82A
:101A70008800186840F001001860586802405A60F9
:101A80001A6822F0847222F480321A601A6822F4F2
:101A900080221A605A6822F4FE025A60DA6A22F042
:101AA0000F02DA62186B83B00022014019639A605A
:101AB000009201921A6842F480321A601A4603E0DA
:101AC000009BB3F5A06F09D0136803F400330193B2
:101AD000009B01330093019B002BF1D01F4B1B682F
:101AE00013F4003318BF01230193019B012B07D08E
:101AF000194B4FF000629A6003B05DF8044B7047D9
:101B0000194A164B122111605A685A605A685A6075
:101B10005A6842F480625A605A6822F47C125A6011
:101B20005A6842F4E8125A601A6842F080721A60E9
:101B30001A461168094B8901FBD55A6822F0030245
:101B40005A605A6842F002025A601A46536803F01B
:101B50000C03082BFAD1CBE700ED00E000100240A7
:101B60000CC07FF8CCFC00FF0020024001F10C0209
:101B7000F0B41CCA0F684D688E683D4335432A4354
:101B8000C66842EA03058A69074B2C432243334067
:101B90001343C3600A7F036B013A23F00F0313431F
:101BA0000363F0BC704700BF07C0FFFD00230122A4
:101BB0000277036043608360C360036143618361B4
:101BC000704700BF836819B943F002038360704710
:101BD00043F0010383607047836843F000438360F0
:101BE000704700BF8068C00F704700BF042A30B440
:101BF0001FD802EB42025200056B1F24944025EAD5
:101C0000040401FA02F222430263092922D80139AD
:101C10004269446901EB410138228A4024EA020208
:101C200042614269033103FA01F11143416130BC61
:101C30007047092A1ED8053A02EB42025200456B52
:101C40001F24944025EA040401FA02F222430929E0
:101C50004263DCD90A398269846901EB41010722B8
:101C60008A4024EA0202826182698B4013438361C5
:101C700030BC70470E2A0DD80A3A02EB42025200DD
:101C8000856B1F24944025EA040401FA02F22243E2
:101C90008263BAE70F3A02EB42025200C56B1F247F
:101CA000944025EA040401FA02F22243C263ACE73D
:101CB000836843F004038360704700BFC36819B9A9
:101CC00023F00103C360704743F00103C360704712
:101CD000C36823F00203C360C3681943C16070473F
:101CE00043681AB923EA0101416070471943416012
:101CF000704700BF03681943016070472DE9F04346
:101D000085B00023DFF86891DFF86881524DADF8A7
:101D10000E30D8F80020514C514E5248DFF850E1B7
:101D20004D4F91B212044BF6BF73A9F8001040F169
:101D30008880BEF8002002F00F02910001F180417E
:101D400001F5B84102706ABB226892B22A802A88E3
:101D500002F0300232802A8802F440522A8022683F
:101D6000134083F4005383F0200343F4004343F013
:101D700080032360BEF80030DA063DD523689BB2AD
:101D8000ADF80E30BDF80E301B055DD4BDF80E3039
:101D90001804BED5226840F68F7313402360FEF707
:101DA000FFFD30E00B689BB2ADF80E30BDF80E3091
:101DB0001C0414D4BDF80E301906AAD502782A499D
:101DC000930003F1804303F5B843013A186851F8D2
:101DD000221048F60F7202401A60884799E70E6891
:101DE000224C0190013A40F68F73334054F8222080
:101DF0000B6090470198DDE7226848F60F731340A7
:101E00002360FEF769FD21683A884BF6BF730B40EB
:101E1000D1043A8848BF83F480539204328848BF83
:101E200083F40053D706328848BF83F01003950629
:101E300048BF83F0200343F40043084A43F0800383
:101E4000136005B0BDE8F083226840F68F7313403D
:101E50002360FEF73FFBD6E78C500020005C00407B
:101E60008E500020C05000208C0100207001002006
:101E70008C510020445C004000B970472DE9F041CE
:101E8000441EE4B2244FA600BB1986B098690D46E3
:101E90000121FFF777FC01210846FFF781FC1F4A6B
:101EA00007EB4408164406A9B8F8303041F8103D55
:101EB0003069022300268DF80C608DF80F3000F099
:101EC00023FD012D02D006B0BDE8F081274497F82C
:101ED0003C1097F8440006F017F8B8F84C3004931B
:101EE000012C14BF08230C2304A88DF815308DF89D
:101EF00014608DF8165002F0B1FF97F858308DF845
:101F0000043001A80F238DF807508DF805308DF8A7
:101F1000063003F0F3F9D6E790E400084000002013
:101F20002DE9F0439B4F3E7883B005468846144622
:101F30004EB9994B32461868294603F0FFFF012835
:101F400004BFE68238707E78DFF84892002E00F0F9
:101F5000D980638B397839B9E28A0132E282002173
:101F600016B901339BB26383B5F90090B9F1000F44
:101F700004D0B4F908204A4500F0BB80B5F902E06E
:101F8000BEF1000F04D0B4F90A20724500F0CB80F6
:101F9000B5F9040000287AD0B4F90CC0604500F00F
:101FA000AC800022B4F816C0A081BCF5FA5F84BFF3
:101FB00001202075B3F5FA5F84BF01236375B2F584
:101FC000FA5F2283A4F80890A4F80AE004D9012358
:101FD000237503F05FFBFEE7237D002BF9D1002979
:101FE00000F08480002E00F08180637D002B50D1B2
:101FF000D5ED025AD8ED026A76EEE56AF5EEC06AD2
:10200000F1EE10FA00F19C80F0EE667AB0EE007A04
:10201000F4EEC77AF1EE10FA40F2B88000F3A58032
:10202000B3EE0E7AF4EEC77ADFED5C7A9FED5C7A60
:10203000F1EE10FAC8BFB0EE677A95ED036AD8EDFD
:10204000037AE6EE875A77EEC67AC4ED005AF5EECB
:10205000C07AF1EE10FA00F18580F0EE676AF0EEDA
:10206000005AF4EEE56AF1EE10FA78D96BDDB3EEC2
:102070000E5AF4EEC56AF1EE10FA64D576EEE56A12
:102080009FED487ADFED485AA6EEA57A15E00246A4
:1020900088E7D5ED026AD8ED025A9FED415A95EDD9
:1020A000036AD8ED037A75EEE65A77EEC67AE5EE66
:1020B000856AB0EE457AC4ED006AA7EE276A3B4A0E
:1020C0000023214684ED016A10681A4603F026FDBC
:1020D000374B00241D683C707C7002F09BFA009422
:1020E000024623462846022101F040FC03B0BDE829
:1020F000F083B5F902E0B5F904C0228B01326046E5
:1021000092B24FE72B4B32461868414603F016FF58
:1021100001280FD099F8001099F80160638B00290D
:102120007FF41EAF18E7228BB5F904C00132604678
:1021300092B237E76683334689F80100064609E71D
:10214000F1EE667A62E7F3EE0E5AF4EEE56ADFED41
:10215000136AF1EE10FAC8BFB0EE667AADE79FEDF4
:10216000117AAAE7F1EE676A79E7B3EE0E6AF4EE48
:10217000C67AF1EE10FA7FF553AF77EEC77A9FED8E
:102180000A6A9FED087AA7EE867A56E79FED057AF0
:1021900053E700BF2C0A0020345100206666663FDA
:1021A00000000000CDCCCC3DA00EEA3C3051002018
:1021B0001C510020F45000200023002202604260E5
:1021C000038143818381C381038243820383C3826A
:1021D0008383438303754375704700BF014B1860C9
:1021E000704700BF445C00404FF6F873014A03405B
:1021F00013607047505C0040800000F1804000F5A3
:10220000B840036823F4EC4323F07003194389B208
:1022100001607047800000F1804000F5B840CA06B8
:10222000036823F4E04323F040039BB248BF83F0EC
:1022300010038A0648BF83F0200343F4004343F0B1
:1022400080030360704700BF800000F1804000F50C
:10225000B840CA04036823F4804323F070039BB2A0
:1022600048BF83F480538A0448BF83F4005343F487
:10227000004343F080030360704700BF800000F11B
:10228000804000F5B840036823F4E04323F04003A6
:102290009BB283F0300343F4004343F080030360B8
:1022A000704700BF800000F1804000F5B84003682F
:1022B00023F4804323F070039BB283F4405343F430
:1022C000004343F080030360704700BF800000F1CB
:1022D000804000F5B84040F60F620368134043F4B5
:1022E000004343F080030360704700BF800000F1AB
:1022F000804000F5B84003685B0408D5026840F6EA
:102300000F73134043F4404343F08003036070476E
:10231000800000F1804000F5B84003685B0608D5F6
:10232000026840F60F73134043F4004343F0C003C8
:1023300003607047064B1B689BB203EBC00000F1C3
:10234000005000F5405049084000490001607047C6
:10235000505C0040054A064B126892B202EBC00086
:10236000034449085B00490019607047505C004015
:1023700004300020064B1B689BB203EBC00000F149
:10238000005000F540504000006880B2704700BF28
:10239000505C0040054A064B126892B202EBC00046
:1023A00003445B00186880B2704700BF505C004077
:1023B00004300020044A054B126892B202EBC000C0
:1023C00003445B0019607047505C004002300020FD
:1023D0000E4A0F4B126892B202EBC00003443E2932
:1023E0004FEA43030AD94A09C80604BF02F1FF3283
:1023F00092B2920242F400421A6070474A08C9073A
:1024000048BF013292021A60704700BF505C004022
:1024100006300020C3B2000A40EA0320704700BF24
:10242000F0B5012183B04FF08050FFF7C7F90121CB
:102430004FF40030FFF7A6F900244FF4C0530226F2
:10244000032769464FF0904000938DF805708DF892
:1024500004608DF806408DF8074000F055FA0E2212
:102460000B214FF0904000F0B7FA0E220C214FF0F4
:10247000904000F0B1FA01214FF48020FFF782F97B
:1024800001254FF480736946124800938DF805606A
:102490008DF807408DF804508DF8065000F034FA9E
:1024A00021463046FFF7E8FC21463846FFF7E4FCBA
:1024B00021460420FFF7E0FC21460520FFF7DCFC65
:1024C00029462846FFF7D8FC062002F06FFD03B02E
:1024D000F0BD00BF0004004808B50020FFF73EF93A
:1024E00001214FF40000BDE80840FFF767B900BFC5
:1024F00010B54FF4407082B002F0F6FE00241421B3
:10250000082201A801238DF804108DF805208DF80C
:1025100007308DF8064002F0F1FE172301A88DF870
:1025200005408DF8043002F0E9FE02B010BD00BF96
:102530004FF4807110B9034800F048BA014800F028
:1025400047BA00BF00040048F0B50C4F0678457844
:10255000847883B000236946082281200093019388
:102560003B708DF802608DF803508DF8044002F046
:1025700059FE0120FFF782FE03B0F0BD6701002085
:1025800010B5064B01460024042281201C7002F085
:1025900049FE0120BDE81040FFF770BE6701002032
:1025A000404B414A1B6812689B187AD03F4A180F6B
:1025B00011683F4A092894BF303037301B0110B4EE
:1025C00090700024180F0928D470394C94BF303013
:1025D00037301B012071180F002409285471344C26
:1025E00094BF303037301B01A071180F0024092828
:1025F000D4712F4C94BF303037301B012072180F2C
:102600000024092854722A4C94BF303037301B0103
:10261000A072180F00240928D472254C94BF3030C2
:1026200037301B012073180F002409285473204CE5
:1026300094BF30303730C3F30363A0730020092BFD
:10264000D0731B4894BF3033373303740B0F002013
:10265000092B5074164894BF3033373383740B0101
:10266000190F00200929D074114894BF3031373137
:102670001B010175190F0020092950750C4894BFE2
:1026800030313731C3F3036381750021092BD175D4
:10269000074994BF303337330B76002353765DF808
:1026A000044B7047ACF7FF1FB4F7FF1FB0F7FF1FD5
:1026B00074000020034B9B7A13B1034B05221A6070
:1026C000704700BFC4500020340A0020014B042290
:1026D0001A607047340A0020704700BF10B5114BD4
:1026E0001B681A78062802F07F0203D0212A0DD039
:1026F000022010BD012AFBD15A79002AF8D19A781C
:10270000222A0DD0212AF3D1074A02E00328EFD173
:10271000064A9A6100245C8220469047204610BDFC
:10272000034AF6E7E4500020F9280008C52700080E
:10273000E128000810B5114B1B681A78062802F032
:102740007F0203D0212A0DD0022010BD012AFBD127
:102750005A79002AF8D19A78222A0DD0212AF3D169
:10276000074A02E00328EFD1064A9A6100245C82FE
:1027700020469047204610BD034AF6E7E45000206B
:10278000F9280008C5270008ED280008074B1A683B
:10279000137803F07F03212B01D0022070470B2810
:1027A000FBD1034BD2781A6000207047E450002020
:1027B0009050002009B102207047002814BF022069
:1027C0000020704708B103487047034B1B68012283
:1027D0001A82704790500020E450002010B5FFF797
:1027E000DFFE054B1B6800249C7200F00BF902F021
:1027F00005FD024B1C6010BDE4500020340A00208F
:10280000224B234A1B68D27910B500245A729C725D
:10281000DC722046FFF7E8FC20464FF40071FFF71A
:10282000EBFC20461021FFF7F5FC20461821FFF7AE
:1028300091FD58212046FFF77DFD2046FFF746FD1C
:10284000144B204693F82C10FFF7C2FD2046FFF7EB
:1028500029FD4FF4C0610120FFF7CEFC4FF48071D9
:102860000120FFF767FD04210120FFF7A3FD2146AA
:102870000120FFF7E9FC20210120FFF7CBFC2046D7
:10288000FEF722F9044B01221A6010BDE45000202B
:10289000ECE5000890000020340A00200149FDF713
:1028A0000BBE00BFC00000200149FDF705BE00BF00
:1028B000C80000200149FDF7FFBD00BFD000002087
:1028C000054B1B68DB78032B04D8044901EBC301DB
:1028D000FDF7F2BD00207047E4500020D800002032
:1028E0000149FDF7E9BD00BFF80000200149FDF7EF
:1028F000E3BD00BF000100200149FDF7DDBD00BFC1
:1029000008010020704700BF00222DE9F047134660
:10291000D1F800E001274FF0030C04E00133102B45
:1029200002F1020225D007FA03F434EA0E05F5D1CC
:102930000E79751E012D0CFA02F51CD9ED430468C1
:1029400091F8078025400560056806FA02F42C43DB
:102950000460C4680CFA02F524EA0504C460C56882
:1029600008FA02F401332C43102BC46002F1020276
:10297000D9D1BDE8F087D0F808A091F8058091F88A
:1029800006900CFA02F5ED430AEA050AC0F808A021
:10299000D0F808A008FA02F848EA0A08C0F8088047
:1029A000B0F804801FFA88F828EA04048480B0F89C
:1029B000048009FA03F444EA0804A4B28480BEE760
:1029C000038A194214BF01200020704781617047BB
:1029D0000185704781827047CB0800EB830001F0CE
:1029E000070110B48900046A0F238B4024EA030313
:1029F0000362036A5DF8044B8A4042EA0301016204
:102A0000704700BF70B50120094D0A4EFFF790FDD9
:102A100000240122084B2A60204634802C601B6869
:102A2000FFF7DCFB4FF4E053338020462B6070BD92
:102A3000405C0040E8500020445C00403049314A8E
:102A40000B681068304AF0B480B2304F10603868BC
:102A50002F4E304D304C80B25060306880B2906064
:102A6000286880B2D06024682C48A4B214613C6904
:102A7000A4B254613469A4B294619BB22E6923F06C
:102A8000010443F48065A4B22B46B6B245F00105BB
:102A900044F48067D6610B600D600F6003681F49C6
:102AA0005B05FBD54FF6FF330B601368154E174DD2
:102AB0001748194F9BB2336053689BB22B609368E1
:102AC0009BB20360D3689BB241F8383C13699BB258
:102AD0003B6053699BB2736193699BB26B61D3692D
:102AE00044F481649BB2436141F8044C51F8043CC6
:102AF0009BB243F0040341F8043CF0BC704700BFB4
:102B0000405C0040005C004098500020045C0040A5
:102B1000085C00400C5C0040105C0040445C0040DD
:102B2000324B072870B418BF18701A78052A56D887
:102B3000DFE802F018284F3843035A782B49013A4E
:102B4000D2B25A705B7803F0FF024BB92848294C87
:102B500005684FF6EF732B40062503600D70226069
:102B600070BC7047234A1268002A3CD1204A106882
:102B70004FF6FB7101404FF43F4406201160146092
:102B80001870EDE71A4A1B4814684FF6FB71214094
:102B90004FF43F4604250124116016601D70046047
:102BA00070BC70475A781149013AD2B25A705B78BA
:102BB000002BD5D104230B70D2E70D490A6892B2DD
:102BC000052442F010020A200A601C70587070BC84
:102BD00070470221597003221A7070BC7047062298
:102BE0001A7070BC704705221A70B9E79450002023
:102BF000405C0040300A002030B488B101280DD17B
:102C00000A4D0B4A0B4C0C4B2A600C4923600225E1
:102C100015720B481B68086030BC184730BC704701
:102C2000024D034A034C074BEEE700BFE45000207F
:102C3000C4500020BC50002034010020E05000208F
:102C40001001002090000020F0B583B002AD0024F8
:102C500045F8044D0B4F0C4E386800231A462946A0
:102C600002F05CFF4FF0FF31306803F0EDFA0A200C
:102C700001F0FAFD019B0133062B34BF1A462246B0
:102C80000192E9E7185100200051002008B5FDF736
:102C90008DFAFCE700B583B005F044F8FF20FEF79D
:102CA000D7FE804C804B2070186005F06BF9FFF761
:102CB000B7FBFFF71DFCFFF70FFC20787B4C7C4D2A
:102CC000FFF79AFF00F09AFBFEF7B0F901F09CF9CC
:102CD00005F0E8F9FEF77AFAFEF756F905F01CFA66
:102CE0000F212020FEF73AFA30212320FEF736FA92
:102CF000472220213220FEF7F5FA18222321322024
:102D0000FEF7F0FA902221213220FEF7EBFA0021A3
:102D10000A2002F0E5FE674B002118600A2002F04D
:102D2000DFFE654B002118600A2002F0D9FE634BDC
:102D3000002118600A2002F0D3FE614B00211860C8
:102D40000A2002F0CDFE5F4B002118600A2002F03D
:102D5000C7FE5D4B002118600A2002F0C1FE5B4BEC
:102D6000002118600A2002F0BBFE594B00211860B8
:102D7000012002F0B5FE574B0121186000220846E1
:102D800002F06EFE544B002218601021012002F068
:102D900067FE524B002218601021012002F060FEF5
:102DA0004F4B002218600821012002F059FE4D4BC4
:102DB000002218600C21012002F052FE4A4B4B4ABF
:102DC0001860002300924FF4FA611A46484800F058
:102DD00079FD0023474A20600A21009246481A469E
:102DE00000F070FD2668286001F014FC0024024603
:102DF000234601210094304600F0B8FD2D6801F013
:102E000009FC2346024601212846009400F0AEFD4D
:102E100003253A4B01934FF48072234638490095BD
:102E2000384801F095F9384A019223464FF48072F0
:102E300036490095364801F08BF9364B0193042250
:102E400023460092344935484FF4807201F080F9EE
:102E5000334A019223464FF480723249009532483A
:102E600001F076F923464FF48072304901940095C1
:102E70002F4801F06DF92F4A019223464FF48072DA
:102E80002D4900952D4801F063F923464FF48072D7
:102E90002B49019400952B4801F05AF901F0CAFA28
:102EA000FEE700BF0851002004510020F050002030
:102EB0001C5100201451002040510020F8500020E7
:102EC0002C51002010510020385100204851002082
:102ED0003C510020005100201851002034510020A6
:102EE000F4500020305100200C510020D53900084A
:102EF00024E60008113A00082CE60008FC500020E7
:102F000040E600085D3F0008445100204CE6000800
:102F10006D0E0008285100205CE60008492C0008CE
:102F2000205100206CE60008E52F000878E6000834
:102F3000696800082451002088E600086D550008E3
:102F400098E600088D2C0008254A83B20021312B19
:102F500091821FD903F1310189B231291AD9A3F124
:102F60003301302923D9A3F16501302919D99628D5
:102F700023DC03F1630189B230292AD995339BB24E
:102F8000302B20D9963004DA938A9BB243F48073B5
:102F900093827047124A938A9BB243F400639382F0
:102FA0007047938A9BB243F4005393827047938A8D
:102FB0009BB243F4805393827047938A9BB243F44D
:102FC000804393827047938A9BB243F40073938249
:102FD0007047938A9BB243F480639382704700BF2B
:102FE000001000482DE9F04F99B04FF0000A10A8EA
:102FF0008DF80BA08DF80CA08DF80DA08DF80EA00B
:10300000CDF810A0CB4ECC4DCC4FDFF83C83CC4C50
:10301000DFF83893FFF7D0F810E0012B00F0A38021
:10302000022B00F0A580032B00F0A780042B00F0FA
:10303000CC80052B00F0CC80FDF7B8F810AA0CA9C5
:1030400008A8FEF76DFFDDED0E7ADDED0A6A9DED55
:103050000F5A9DED0B7ADDED105A9DED116A306827
:10306000FDEEE77AFDEEE66A17EE903AFDEEC57AE0
:1030700016EE901A17EE902ABDEEC77AFDEEE57AAD
:1030800017EE10EAADF8141017EE901AFDEEC67A9E
:10309000ADF816E0ADF8183017EE90EA0023ADF861
:1030A0001A20ADF81C101A4605A9ADF81EE002F072
:1030B00035FD2B68052B0ED000220DF10B01206889
:1030C00002F03CFF9DF80B30002BA6D1BDF920008B
:1030D000FFF73AFFB0E73B78002BEDD098F80030CF
:1030E000002B78D0012BE7D1DDED107AF5EEC07A18
:1030F000F1EE10FA40F3EC80FCEEE77ACDED017AC8
:103100009DF80430C3EBC31389FB03121A44DB1789
:10311000A3EBA213013B8DF81130DDED117AF5EE32
:10312000C07AF1EE10FA40F3EF80FCEEE77ACDEDD5
:10313000017A9DF80430C3EBC31389FB03121A44D0
:10314000DB17C3EBA2138DF8103001214FF0904034
:10315000FFF736FC031C18BF012304A88DF81330B9
:10316000FFF70EFAA8E7BDF92200FFF7EDFE63E7CF
:10317000BDF92400FFF7E8FE5EE7BDF830B0714806
:103180000021FFF727FCABF16403092B56D9ABF103
:103190006E03092B58D9ABF17803092B75D9BBF114
:1031A000810F00F28980ABF15A03092B40F28A802B
:1031B000ABF1500BBBF1090F94BF4FF400714FF40A
:1031C00080716048FFF702FC36E7BDF832B0D6E701
:1031D000BDF834B0D3E7BDF92030DDED107A052B12
:1031E00038DDF5EEC07AF1EE10FA3ADD04238DF801
:1031F0000C30B3EE047AF4EEC77AF1EE10FA39DD52
:1032000004238DF80C30DDED117AB2EE047AF4EE81
:10321000C77AF1EE10FA42DD1A238DF80D30012144
:103220004FF09040FFF7CCFB002814BF1B23002376
:1032300003A88DF80E30FFF787F93DE74FF40061E2
:103240004048FFF7C3FBF7E64FF480513D48FFF7D6
:10325000BDFBF1E6053304DAF5EEC07AF1EE10FAC3
:1032600019D4B3EE047AF4EEC77AF1EE10FA8DF8C1
:103270000CA0C5DCBBEE047AF4EEC77AF1EE10FACE
:1032800044BF07238DF80C30BDE74FF400512D48A3
:10329000FFF79CFBD0E607238DF80C30A9E7BAEEC8
:1032A000047AF4EEC77AF1EE10FA46BF16238DF8D1
:1032B0000D308DF80DA0B2E74FF480412148FFF7A3
:1032C00085FBB9E64FF480611E48FFF77FFBB3E64C
:1032D0007FF523AFF1EE677AFCEEE77ACDED017A68
:1032E0009DF80430DDED117AC3EBC31389FB0312A3
:1032F0001A44F5EEC07ADB17C3EBA213F1EE10FA15
:103300008DF811303FF711AF7FF51FAFF1EE677AFF
:10331000FCEEE77ACDED017A9DF80430C3EBC313E0
:1033200089FB03121A44DB17A3EBA213013B8DF8B0
:1033300010300AE70C510020340A002067010020F9
:10334000185100200010004808510020B7600BB64B
:10335000704700BFFEE700BFFEE700BF704700BF39
:10336000F0B48F680E6A0D694C698A69CB693E4377
:103370002E4326434D6A8C6A8F8916430268334375
:103380001D4322F4FF432C4323F070034A68234378
:103390000C68036047608460C260F0BC704700BF87
:1033A00029B902684FF6FE73134003607047036843
:1033B00043F001030360704703681AB923EA01016F
:1033C0000160704719430160704700BFC3004CBFE4
:1033D000034B044B1B68034214BF012000207047BD
:1033E0000004024000000240C3004CBF014B024BEE
:1033F00058607047000402400000024070B501218F
:1034000088B04FF40010FEF7BDF901214FF40030F1
:10341000FEF7B8F9012400254FF47F4302A91E48A6
:1034200002938DF80C408DF80D408DF80E50FFF78B
:103430006BFA0322022304A94FF090408DF8152067
:103440008DF8173004948DF81450FFF75DFA4FF49F
:10345000407001F049FF21462046FEF7A1F92946B8
:10346000284604F051FD082606A806958DF81C5044
:103470008DF81E408DF81D6001F0F0FC062301A8B8
:103480008DF806508DF805608DF807408DF80430F2
:1034900001F034FF08B070BD0010004800B50121F4
:1034A00083B04FF40030FEF76DF902220323694622
:1034B0004FF0904000928DF80430FFF725FA03B0EA
:1034C0005DF804FB10B50D4C82B001214FF40020D3
:1034D000FEF758F901233F22204669468DF8043053
:1034E0008DF805308DF806300092FFF70DFAA38AAB
:1034F0009BB243F03F03A38202B010BD0008004816
:1035000000B583B002A9002341F8043D0D4B1868B3
:1035100002F0BEFC019B012B05D0002001F026FD2E
:1035200003B05DF804FB084B4FF080521A60BFF304
:103530004F8FBFF36F8F002001F018FD03B05DF8CF
:1035400004FB00BF0051002004ED00E02DE9F04332
:10355000224E85B04FF00008B1460DE0DB68DC6814
:103560001F68251D284601F0ABFE236A20469847B8
:1035700094F828305B070AD4336818491A68002A7F
:10358000ECD18A680A608B6005B0BDE8F083A3695E
:103590003B449F4229461AD3D9F8043073B1CDF881
:1035A00004800297039401F021FB00231A4601A92D
:1035B000D9F8040002F0B2FA0028DDD14FF0500330
:1035C00083F31188BFF36F8FBFF34F8FFEE7636004
:1035D0002461D9F8000001F059FECDE7380A002037
:1035E0002DE9F047934C944F88B0264623681D6818
:1035F000002D40F09E8001F003F801F00BF8F36815
:1036000098428046C0F0A480B368C6F80C801A685F
:10361000B2FA82F25209C8EB0501606802F09EFF1F
:1036200001F0A2F830B94FF080533B60BFF34F8FE9
:10363000BFF36F8F4FF00008002202A9606802F00C
:103640007DFC0028D2D0029B002BF5DB049D6B692A
:1036500013B1281D01F034FE00F0DCFFE36898424E
:103660007DD3029BE060092BE6D8DFE803F02D2D27
:103670002D260F052D2D260F95F828309A0740F19D
:10368000948023F0010385F82830D5E795F82820A9
:10369000039BAB6142F0010285F82820002B00F06B
:1036A000C080034483426B602D6105F1040194BF27
:1036B000A068206801F0EAFDBEE795F8283023F005
:1036C000010385F82830B7E7039AD5F818E095F894
:1036D00028302D6102EB0E0143F00103814285F891
:1036E0002830696040D8821A964562D82B6A2846ED
:1036F000984795F828305B079ED5636883B1AB691E
:10370000039ACDF8148013440693079501F06EFADE
:1037100000231A4605A9706802F000FA00288BD130
:103720004FF0500383F31188BFF36F8FBFF34F8FB8
:10373000FEE7DB681D6800F063FF00F06BFFF368D5
:103740009842804604D38542F06016D9002262E791
:10375000FFF7FCFEC4F80C8001F006F86AE7019060
:10376000FFF7F4FE01987CE7824201D98A42BDD975
:10377000291D206801F08AFD5EE700F0F5FF33683F
:10378000DB68D3F80C9009F1040A504601F098FD6B
:1037900099F82830590711D423F0010389F828300B
:1037A000D9F820304846984744E7284604F0CEFD33
:1037B00042E7291DA06801F069FD3DE7D9F81830FE
:1037C000C9F81090EA184245C9F8042004D95146B6
:1037D000306801F05BFDE3E7C5EB080843451BD803
:1037E000736883B14FF000080695CDF81C90CDF8B2
:1037F000148001F0FBF94346424605A9706802F0C7
:103800008DF90028CCD14FF0500383F31188BFF31A
:103810006F8FBFF34F8FFEE75146B06801F036FD62
:10382000BEE74FF0500383F31188BFF36F8FBFF3F0
:103830004F8FFEE7380A002004ED00E0F0B51C4C85
:1038400083B001F027FF6768D7B101F045FF6368D7
:103850006BB1184B0193032300934FF400720023C4
:103860001549164800F074FC08B103B0F0BD4FF0E4
:10387000500383F31188BFF36F8FBFF34F8FFEE7C1
:1038800004F11006304604F1240501F0DFFC28465F
:1038900001F0DCFC3A460C210A202660A56002F00B
:1038A000DFF860600028D0D0054902F02BFECCE79D
:1038B000380A0020700A0020B8E60008E135000848
:1038C000B0E600082DE9F04F824683B02C200E466A
:1038D0001746994604F0D8FC044620B3002380F82C
:1038E000283046B94FF0500383F31188BFF36F8F30
:1038F000BFF34F8FFEE71B4D01F0CCFE6A68B2B1FB
:1039000001F0EAFE0C9BC4F800A0A661C4F81C906C
:103910002362201D01F0A6FC2FB194F8283043F05B
:10392000040384F82830204603B0BDE8F08F05F189
:103930001008404605F1240B019201F087FC58461F
:1039400001F084FC019AC5F800800C210A20C5F81A
:1039500008B002F085F868600028D1D0024902F072
:10396000D1FDCDE7380A0020B0E6000830B370B5CD
:10397000174D0446686884B080B1164605291A467A
:103980000191029603940BDC01F030F902280DD06E
:10399000002368681A4601A902F0C0F804B070BD9F
:1039A000002301A902F010FA04B070BD6868089AFB
:1039B000002301A902F0B2F804B070BD4FF050032B
:1039C00083F31188BFF36F8FBFF34F8FFEE700BF04
:1039D000380A002010B5012182B004464FF0904013
:1039E000FEF7EEFF30B1094A0023106819461A4667
:1039F00002F094F800234FF0FF32009220461A465E
:103A00000521FFF7B3FF02B010BD00BF1051002029
:103A100010B5084A0023194610681A4602F07EF8CD
:103A2000054A0023106819461A46BDE8104002F006
:103A300075B800BF38510020485100200000000038
:103A4000F0B5E74C2368D3ED027A2DED048BF5EE4B
:103A5000407AF1EE10FA83B093ED038A1CD017EE92
:103A6000900A0AF00DF8D8A3D3E900230AF05CF815
:103A70000AF032FB00EE100A04F02AFFB5EE408A8D
:103A8000F2EE047AF1EE10FA20EE279A0CD1DFED77
:103A9000D59AB7EE008A24E0B5EE408AF1EE10FA2E
:103AA00000F0A4819FEDCF9A18EE100A09F0E8FF0C
:103AB000C5A3D3E900230AF037F80AF00DFB00EEA6
:103AC000100A08EE100A04F003FFF2EE048A60EE1A
:103AD000289AB0EE480A04F0ABFE60EE287AB0EE09
:103AE000408A89EE270AF7EE007AB4EEE70AF1EE93
:103AF00010FAC8BFB0EE670A40F37F8104F032FFCE
:103B000023688DED000AB3F9000009F0A7FFB0A308
:103B1000D3E900230AF008F89DED000A064610EEEE
:103B2000100A0F4609F0ACFFABA3D3E9002309F05C
:103B3000FBFF0AF0D1FA09F0A3FF02460B4630461C
:103B4000394609F03FFEA0A3D3E9002309F0ECFFBA
:103B50000AF0C2FA00EE100A04F0BAFEF2EE048A8D
:103B600020EE280A20EE088A88EE280A04F0FAFEE1
:103B700010EE100A09F084FF97A3D3E9002309F09F
:103B8000D3FF0AF0A9FA09F07BFF8FA3D3E9002342
:103B900009F0CAFF0AF0A0FA00EE100A04F048FE8D
:103BA00060EE288AB0EE409A89EEA80AF7EE007A15
:103BB000B4EEE70AF1EE10FA40F3FA80B0EE670ACD
:103BC00004F0D0FE23688DED000AB3F9020009F07D
:103BD00045FF7FA3D3E9002309F0A6FF9DED000A6E
:103BE000064610EE100A0F4609F04AFF7AA3D3E901
:103BF000002309F099FF0AF06FFA09F041FF02462D
:103C00000B463046394609F0DDFD6FA3D3E90023AA
:103C100009F08AFF0AF060FA00EE100A04F058FE7C
:103C2000F2EE047A20EE270AB7EE007A60EE098AF7
:103C300088EEA70AB4EEC70AF1EE10FA00F3AB80E3
:103C4000FFEE007AB4EEE70AF1EE10FA00F1A3807D
:103C500088EE280A04F010FD10EE100A09F010FF9B
:103C60005DA3D3E9002309F05FFF0AF035FA09F0FC
:103C700007FF55A3D3E9002306460F4609F054FF7A
:103C80000AF02AFA00EE100A04F022FEF2EE047A9C
:103C900060EE277AB7EE007A88EE270AB4EEC70AFC
:103CA000F1EE10FA7ADDB0EE470A04F05BFE23680D
:103CB000B3F9040010EE105A09F0D0FE44A3D3E982
:103CC000002309F031FF02460B463046394609F021
:103CD00077FD3DA3D3E9002309F026FF0AF0FCF9A4
:103CE00000EE100A08EE100A04F0F2FD2846F0EE8D
:103CF000408A09F0C5FE38A3D3E9002309F014FF78
:103D00000AF0EAF909F0BCFE2FA3D3E9002309F079
:103D10000BFF0AF0E1F900EE100A04F0D9FDF0EE15
:103D2000409AB0EE480A04F083FDB2EE049AB0EE79
:103D3000408A28EE890A20EE290A80EE090A04F05A
:103D400011FE8DED010A28EE090A20EE290A80EE07
:103D5000090A04F007FE01988DED000A09F090FEB3
:103D60001DA3D3E9002309F0DFFE0AF0B5F99DEDAC
:103D7000000A2468A06010EE100A09F081FE16A364
:103D8000D3E9002309F0D0FE0AF0A6F9E06003B001
:103D9000BDEC048BF0BD04F0E5FD59E7FFEE007AC1
:103DA000B4EE670AF1EE10FA48BFB0EE670A7CE79E
:103DB000FFEE007AB4EE670AF1EE10FA48BFB0EEFB
:103DC000670AFDE6AFF300804DC9077746DF913FF4
:103DD000FA7E6ABC7493583F72235D1ADCA54C408E
:103DE000A8480020D2023739A86892375FED039ABD
:103DF0001FED030AB7EE008A80E6FFEE007AB4EE0C
:103E0000670AF1EE10FA48BFB0EE670A76E600BF27
:103E100070B54D4B4D4C1868216885784278838A7F
:103E200042EA05251D44ADB22E0442D41F2D2FD8E1
:103E3000002343810B8002794579C38A42EA052534
:103E40001D44ADB22A0454D41F2D7AD80023838197
:103E50004B80057AC279038B42EA05251D44ADB239
:103E60002B042FD41F2D5BD80023C381384A8B80AD
:103E700010680831002202F061F8FFF7E1FD354BD0
:103E80002168186800231A46BDE8704001F046BE5C
:103E90006B421BB2C3EB431203EB82022E4B4581F4
:103EA000120183FB02531344D217C2EBA3331BB29C
:103EB000C0E7C5F30E05C5F50045ADB21F2DB7D956
:103EC0002BB2E7E7C5F30E05C5F50045ADB21F2DD2
:103ED000CAD92BB2C3EB431203EB82031E4AC5813E
:103EE0001B0182FB03021A44DB17C3EBA2331BB294
:103EF000BCE7C5F30E05C5F50045ADB21F2DA5D92C
:103F00002BB2C3EB431203EB8202134B85811201E8
:103F100083FB02531344D217C2EBA3331BB297E7C0
:103F20006B421BB2C3EB431203EB82020A4BC58107
:103F3000120183FB02031344D217C2EBA3331BB25B
:103F400094E76B421BB2DCE7A4480020A84800209D
:103F50003051002034510020030001802DE9F04150
:103F600060212248DFF89C80214E224D224F012201
:103F700001F096F801212148FFF712FA4FF0FF31C6
:103F8000D8F8000002F060F9002408211C48FEF770
:103F90001FFD3368154823440134997E01F072F8FF
:103FA0004FF0FF31286802F04FF900210F4801F06F
:103FB00069F84FF0FF31286802F046F900210B48FC
:103FC00001F060F84FF0FF31286802F03DF9082158
:103FD0000B48FEF7FBFC032CD7D14FF0FF313868BC
:103FE00002F032F9FFF714FFC8E700BF00300140CC
:103FF000A448002014510020405100201C00024021
:104000000010004838510020F0B4134A134B1360DD
:10401000EC221349134C1A77E8260022EA250020E7
:104020000A279E76DD7606264FF6F9751A705A70C5
:104030009A705A749A74DA741A749F82DE821D839D
:1040400021605A819A81DA810A804A808A80886058
:10405000C860F0BC704700BFA4480020844800201E
:104060007C500020A848002080B5144C144F4FF01D
:10407000805614E001F00EFB636FDD68281D01F02F
:104080001FF9E36F013BE3672368013B236001F005
:1040900023FB286B04F05AF9284604F057F92368EB
:1040A000002BE7D16368012B04D93E60BFF34F8F2B
:1040B000BFF36F8FFFF74CF9F1E700BF740A0020E0
:1040C00004ED00E0F8B5204DD5F88060D5F88430D7
:1040D0000446181D0F4601F0F3F850B9D5F88430A6
:1040E000D5F88820D96A01238B4022EA0303C5F85A
:1040F0008830631C1DD0D5F88430134D3444A6425B
:104100005C600DD8D5F8A400D5F88410043101F016
:10411000BDF8D5F8A8309C4238BFC5F8A840F8BD16
:10412000D5F8A000D5F88410BDE8F840043101F0BE
:10413000ADB8002FDFD0D5F8841004480431BDE8B5
:10414000F84001F093B800BF740A0020000B002073
:104150002DE9F84F9600804630460D4699460B9F54
:1041600004F092F8002800F0B7808246582004F04E
:104170008BF80446002800F0AC80C0F830A032462E
:104180005046A52105F0D0FF236B043E1E4426F0C7
:104190000706002D00F0CF802B7884F834302B7880
:1041A0002BB36B7884F835306B7803B3AB7884F835
:1041B0003630AB78DBB1EB7884F83730EB78B3B1DD
:1041C0002B7984F838302B798BB16B7984F83930BE
:1041D0006B7963B1AB7984F83A30AB793BB1EB7969
:1041E00084F83B30EB7913B12B7A84F83C30002310
:1041F00084F83D300A9D042D28BF04254FF0000BA4
:1042000004F1040AE562A5645046C4F84CB001F01C
:1042100029F8C5F1050504F1180001F023F8C4F8E8
:1042200050B0A561246184F854B064624A464146A6
:10423000304601F001FA206007B13C603F4D01F0CB
:1042400029FAEB6F0133EB67D5F88430002B47D0A8
:10425000D5F8E83093B3E36A05F10408D5F8EC200B
:10426000D5F888700126324406FA03FE03EB83007A
:1042700022644EEA0703514608EB8000C5F88830F7
:10428000C5F8EC2000F0F2FF01F026FAD5F8E8308E
:104290002A4A83B1D2F88420E36AD26A9A420AD2C7
:1042A000274B4FF080521A60BFF34F8FBFF36F8FD1
:1042B0003046BDE8F88F3046BDE8F88FD5F8842049
:1042C000E36AD26A9A4298BFC5F8844005F10408AF
:1042D000C4E7504604F03AF84FF0FF30BDE8F88FDD
:1042E000C5F88440EB6F012BB5D105F104084646B3
:1042F00005F168073046143600F0A8FFBE42F9D138
:10430000104E304606F1140700F0A0FF384600F0CA
:104310009DFF06F1280000F099FFA6F1440000F08F
:1043200095FFA6F1200000F091FFC5F8A460E36AB4
:10433000C5F8A07092E784F834505BE7740A002057
:1043400004ED00E0200B0020F8B50446374E01F0E4
:10435000A1F9002C5ED0271D384600F0B1FF38B916
:10436000E16A324801EB810306EB83035B685BB3D0
:10437000A36A1BB104F1180000F0A2FFD6F8EC30DC
:10438000D6F88420294D01339442C6F8EC302CD065
:10439000EB6F206B013BEB6703F0D8FF204603F087
:1043A000D5FFD5F8A4301B68BBB94FF0FF33C5F873
:1043B000A83001F091F9D6F8E8201C4B1AB1D3F8D7
:1043C000842094421AD0F8BDD0F8883001228A4067
:1043D00023EA0203C0F88830CAE7D5F8A430DB68C6
:1043E000DB685B68C5F8A830E3E7394605F168008B
:1043F00000F03CFF2B6801332B60DAE7D3F8F03094
:104400005BB14FF0500383F31188BFF36F8FBFF39D
:104410004F8FFEE7D6F884409DE7054B4FF0805262
:104420001A60BFF34F8FBFF36F8FF8BD740A00207F
:1044300004ED00E02DE9F8434FF4806003F024FF21
:10444000002800F094800546582003F01DFF044624
:10445000002800F0898005634FF480622846A5217A
:1044600005F062FE236B624D00264C214522492750
:10447000442004F1040803F57F7384F8361084F8AF
:10448000372084F8347084F8350084F8386040466A
:1044900084F83D60E662A664E66423F0070700F056
:1044A000E1FE04F1180000F0DDFE0523A36126659E
:1044B0003246504984F8546038462461646201F001
:1044C000BBF82060C5F8F44001F0E4F8EB6F01336D
:1044D000EB67D5F88430002B60D0D5F8E830002B9E
:1044E0004ED0E06A2E1DD5F8EC30D5F88820012793
:1044F0000133874000EB80003A432364414606EBDA
:104500008000C5F88820C5F8EC3000F0AFFE01F05F
:10451000E3F8D5F8E820364B6AB1D3F88420E36A93
:10452000D26A9A4207D2344B4FF080521A60BFF3DE
:104530004F8FBFF36F8FFFF781F901282AD14FF01A
:10454000500383F31188BFF36F8FBFF34F8F0023A6
:104550004FF0FF32C5F8A820C5F8E800C5F8803054
:10456000BDE8F84301F032B9284603F0EFFE4FF002
:10457000500383F31188BFF36F8FBFF34F8FFEE7B4
:10458000D5F88430E06ADB6A834298BFC5F884407E
:104590002E1DA8E70130EAD0BDE8F883C5F88440B5
:1045A000EB6F012B9DD12E1D374605F1680938466A
:1045B000143700F04BFE4F45F9D1104F384607F144
:1045C000140900F043FE484600F040FE07F12800C1
:1045D00000F03CFEA7F1440000F038FEA7F12000F7
:1045E00000F034FEC5F8A470E06AC5F8A0907AE740
:1045F000740A00206940000804ED00E0200B002050
:10460000034AD2F8F0300133C2F8F030704700BFEF
:10461000740A0020014BD3F880007047740A002010
:104620002DE9F84F4F4CD4F8F030002B40F081804A
:10463000D4F880600136C4F8806016BBD4F8A4308A
:104640001B6843B14FF0500383F31188BFF36F8FA2
:10465000BFF34F8FFEE7D4F8A430D4F8A020C4F8FD
:10466000A420C4F8A030D4F8F8300133C4F8F830EE
:10467000D4F8A4301B68002B67D14FF0FF33C4F887
:10468000A830D4F8A8309E423AD3DFF8D88000256D
:1046900008F1040B4FF0010A27E0D8F8A420D268F3
:1046A000D7687A6807F10409964248464AD300F071
:1046B00007FEBB6A07F118000BB100F001FEF86AB3
:1046C000D4F888300AFA00F200EB80001343494620
:1046D0000BEB8000C4F8883000F0C8FDD4F88430BB
:1046E000FA6ADB6A9A4228BF0125D4F8A4201D4B40
:1046F0001268002AD1D14FF0FF32C3F8A82000E0A1
:104700000025D4F88430DB6A03EB830304EB8303D6
:104710005A68D4F8FC30022A28BF01250BB9FEF7ED
:104720001DFED4F80031002B0CBF28460120BDE847
:10473000F88FD4F8FC300133C4F8FC300025FEF7C4
:104740000DFEEEE7C3F8A820DBE7D4F8A430DB6861
:10475000DB685B68C4F8A830D4F8A8309E42CFD399
:1047600093E700BF740A00202DE9F8433C4CD4F8CD
:10477000F03043B94FF0500383F31188BFF36F8FCC
:10478000BFF34F8FFEE700F085FFD4F8F030013B18
:10479000C4F8F030D4F8F050002D52D1E36F002B64
:1047A0004FD02646012704F1040822E0D6F8E03075
:1047B000DD6805F1040905F1180000F081FD4846A7
:1047C00000F07EFDE86AD6F8883007FA00F200EBC8
:1047D00080001343494608EB8000C6F8883000F09B
:1047E00045FDD6F88430EA6ADB6A9A4228BFC6F8EB
:1047F0000071D4F8D4201A4B002AD7D13DB1D3F898
:10480000A42012681ABB4FF0FF32C3F8A820D4F8D6
:10481000FC504DB10126FFF703FF08B1C4F8006159
:10482000013DF8D1C4F8FC50D4F800314BB10D4B28
:104830004FF080521A60BFF34F8FBFF36F8F012488
:1048400000E0002400F048FF2046BDE8F883D3F8DC
:10485000A420D268D2685268C3F8A820D7E700BF66
:10486000740A002004ED00E008B560B1104BD3F8E5
:10487000F01089B14FF0500383F31188BFF36F8FAD
:10488000BFF34F8FFEE70B4B4FF080521A60BFF320
:104890004F8FBFF36F8F08BDD3F8F0200132C3F8FC
:1048A000F020FFF70FFCFFF75FFF0028EBD008BDFB
:1048B000740A002004ED00E010B5254CD4F8F03067
:1048C000002B37D1C4F80031D4F884301B6B1A6840
:1048D000B2F1A53F03D15A68B2F1A53F2ED0D4F86A
:1048E0008400D4F884103431FEF736FD1848D4F82B
:1048F0008820B2FA82F2D2B2C2F11F0303EB830323
:104900009B00E1184A6842B94FF0500383F31188C5
:10491000BFF36F8FBFF34F8FFEE78A68034452687F
:104920008A600C339A4204BF52688A60D368C4F824
:10493000843010BD0123C4F8003110BD9A68B2F173
:10494000A53FCCD1DB68B3F1A53FC8D1CEE700BF0E
:10495000740A0020F8B580B3254C0D46D4F88410B5
:10496000183100F093FCD4F88070D4F8840004303F
:1049700000F0A6FC50B9D4F88420D4F88830D16A6D
:1049800001228A4023EA0203C4F888306B1C1DD040
:10499000D4F88430164EEC19A7425C601ED8D6F8C5
:1049A000A400D6F88410043100F070FCD6F8A830CA
:1049B0009C4238BFC6F8A840F8BD4FF0500383F3BF
:1049C0001188BFF36F8FBFF34F8FFEE7D4F88410C9
:1049D00008480431BDE8F84000F048BCD6F8A00013
:1049E000D6F88410BDE8F840043100F04FBC00BF99
:1049F000740A0020000B0020F8B5002836D02C4C9B
:104A00000D46D4F884101831164600F02FFCD4F867
:104A10008070D4F884000430002E43D000F050FCA5
:104A2000002837D14FF0FF35D4F88420D4F88830EF
:104A3000D16A01228A4023EA0203C4F888306B1C41
:104A400026D0D4F884301A4EEC19BC425C6016D3E0
:104A5000D6F8A400D6F88410043100F017FCD6F87C
:104A6000A8309C4223D2C6F8A840F8BD4FF05003AE
:104A700083F31188BFF36F8FBFF34F8FFEE7D6F834
:104A8000A000D6F88410BDE8F840043100F0FEBB69
:104A9000002ED6D0D4F8841006480431BDE8F84082
:104AA00000F0E4BB00F00CFC0028C8D1BCE7F8BD66
:104AB000740A0020000B0020F8B5C368DD6845B318
:104AC00005F118061A4C304600F0FAFBD4F8F03025
:104AD00043BB2E1D304600F0F3FBE86AD4F8883063
:104AE00001228240271D00EB80001343314607EB73
:104AF0008000C4F8883000F0B9FBD4F88430E96A4B
:104B0000DA6A0B4B914286BF0120C3F800010020F6
:104B1000F8BD4FF0500383F31188BFF36F8FBFF3DD
:104B20004F8FFEE7314604F1D40000F09FFBE4E72D
:104B3000740A0020034BD3F8F820D3F8803080E8C3
:104B40000C007047740A0020F8B550B301B30D464D
:104B5000044600F09FFD2B681F496068D1F8802053
:104B60005E1C34D0D1F8F8602768B74206D0824284
:104B700004D3012500F0B0FD2846F8BD121A9A4270
:104B800018D300232B60012500F0A6FD2846F8BDB0
:104B90004FF0500383F31188BFF36F8FBFF34F8F34
:104BA000FEE74FF0500383F31188BFF36F8FBFF31D
:104BB0004F8FFEE7D1F8F8009B1AD1F880202B60C8
:104BC00084E80500002500F087FD2846F8BD002593
:104BD00000F082FD2846F8BD740A0020024B012235
:104BE000C3F80021704700BF740A0020064BD3F8B9
:104BF000E82032B1D3F8F030002B0CBF02200020A7
:104C000070470120704700BF740A002058B32DE997
:104C1000F0412C4DC36AD5F88420D26A934218D251
:104C20008269002A05DBD5F88420D26AC2F1050228
:104C30008261244C426903EB8303261D06EB830348
:104C40009A4211D0D4F88430DB6AC3620120BDE8F7
:104C5000F081D5F88420836CD06A83422CBF002079
:104C60000120BDE8F081704700F104080746404686
:104C700000F026FB78B9FA6A02EB820304EB8303A7
:104C80005B6843B9D4F88830012101FA02F223EAC3
:104C90000202C4F88820D5F88420D5F88830D06A7C
:104CA000F862012404FA00F200EB800006EB8000B9
:104CB00013434146C5F8883000F0D8FA2046BDE8D5
:104CC000F08100BF740A002010B3F8B5284DD5F864
:104CD0008430984208D04FF0500383F31188BFF31B
:104CE0006F8FBFF34F8FFEE7C36C43B94FF0500394
:104CF00083F31188BFF36F8FBFF34F8FFEE7C16A55
:104D0000826C013B9142C36400D01BB10020F8BD0E
:104D100000207047071D0446384600F0D1FA70B9EC
:104D2000E06A00EB800305EB83035B683BB9D5F8D1
:104D300088300122824023EA0203C5F88830A36C40
:104D4000D5F888200B48E362012606FA03FE3946AF
:104D5000C3F1050703EB83034EEA020200EB830075
:104D6000A761C5F8882000F081FA3046F8BD00BF81
:104D7000740A0020780A0020B8B12DE9F041C46C13
:104D800044B94FF0500383F31188BFF36F8FBFF323
:104D90004F8FFEE7826CC36A8A4238BF0A4693424D
:104DA00001D0012C02D0BDE8F0817047234DD5F829
:104DB0008410884227D08169204FC2620029A4BF95
:104DC000C2F10502826103EB830342693E1D06EBDB
:104DD00083039A42E7D100F104080446404600F0FC
:104DE0006FFAE26AC0B1012393409100D5F8884080
:104DF0008818234306EB80004146C5F88830BDE89B
:104E0000F04100F033BA4FF0500383F31188BFF341
:104E10006F8FBFF34F8FFEE791008B1807EB830373
:104E20005B6813B101239340E0E7D7F888000123C2
:104E3000934020EA0300C7F88800D7E7740A0020EF
:104E4000054BD3F8842022B1D3F88410CA6C013208
:104E5000CA64D3F884007047740A00208379F0B4E0
:104E6000002B54D0036802793D4E3E4D23F01F01C4
:104E700001F1804101F5823103F01F040F68012325
:104E800003FA04F427EA04040C60016821F01F0708
:104E900001F01F01BC5903FA01F124EA0101B951E3
:104EA0000168314C02F1804221F01F0702F5823285
:104EB00001F01F01BE5803FA01F13143B9500268F5
:104EC000417922F01F0702F01F027E5903FA02F215
:104ED00026EA02027A51026822F01F0702F01F023E
:104EE0003E5903FA02F226EA020210293A5121D071
:104EF000006801F1804220F01F0402F5823200F0C8
:104F00001F00A15883400B43A350F0BC70470379A6
:104F1000026803F1804322F01F0403F5823302F09C
:104F20001F02E158012000FA02F221EA0202E250D7
:104F3000F0BC7047026822F01F0602F01F02715990
:104F400003FA02F20A437251026822F01F0002F0D3
:104F50001F02015993400B430351F0BC704700BF3F
:104F600004040140080401400C04014000F01F014A
:104F7000012320F01F00024A8B408350704700BF7E
:104F80001404014020F01F0303F1804303F5823332
:104F900000F01F00012219685B69824012EA0300D9
:104FA00003D0114214BF01200020704700F01F0100
:104FB000012320F01F00024A8B408350704700BF3E
:104FC00014040140F0B44F88B7F5827F23D0828863
:104FD0000B888E88CD880C8922F470621204120C22
:104FE0003B4332432B434E898D8982802343CA89B8
:104FF000048833432B4304F44154134323439BB2AB
:105000000380838B0A8A23F400631B041B0C8383B5
:10501000F0BC02827047CE880B880C894A898F8940
:10502000CD89334343F482731C43144302888E8832
:105030003C432C4302F44152224392B202808388C3
:1050400023F470631B041B0C33438380D9E700BF38
:10505000038829B923F040031B041B0C038070470D
:105060009BB243F040030380704700BF838823F462
:1050700080531B041B0C838083889BB2194381805F
:10508000704700BF01737047007B704783889BB2F5
:105090001AB923EA01018180704719438180704762
:1050A0000123090903FA01F1838889B29BB21AB975
:1050B00023EA01018180704719438180704700BF56
:1050C0000389194214BF012000207047C94389B2E7
:1050D0000181704708B50D4B98424FF001010AD08D
:1050E0004FF48000FCF778FB00214FF48000BDE80E
:1050F0000840FCF771BB4FF40010FCF76DFB00217A
:105100004FF40010BDE80840FCF766BB00540040B7
:10511000F0B405688E69164B25F0010591E89400FE
:10512000056005682B4043EA0723234322F07062A1
:105130000360026105680C69CB684A6945F00105A6
:1051400046EA0401002405608460C46081608168CF
:1051500041F40041816001680B430360436823F020
:10516000784323F4004313434360F0BC704700BF0F
:10517000FFE0CF00036819B923F001030360704713
:1051800043F001030360704703681AB923EA010181
:105190000160704719430160704700BF436819B947
:1051A00023F480434360704743F480434360704777
:1051B00070B44668064D039C35402C432343C1F32D
:1051C0000901194341EA0242426070BC704700BFC6
:1051D000009800FC8162704703681AB923EA010154
:1051E0000160704719430160704700BF83690B423B
:1051F00014BF012000207047C161704710B40649F8
:10520000064C074A00204FF43F4320600B805DF8B6
:10521000044B1360704700BFE8500020445C00401E
:10522000405C004070B500F07F0528460E461446ED
:10523000FDF7A0F8A4B201462246304602F0D0FEA7
:1052400028462146FDF7B6F8002070BD00F108039E
:105250004FF0FF310022816002604360C360036150
:10526000704700BF00230361704700BF43680268B6
:1052700010B49C688C609C684B60013261609960DE
:105280005DF8044B08610260704700BF30B40D68E0
:105290006B1C11D000F1080200E01A4653681C682C
:1052A000A542FAD204684B60013499608A6051606B
:1052B0000861046030BC704702695368F2E700BFC0
:1052C00042688168036910B4916081685C684A60D3
:1052D0001A68A04208BF5960013A002101611A60B2
:1052E00018685DF8044B704740F0BF60024B40F413
:1052F0000030D860704700BF00ED00E0C3785BB9B4
:10530000037817485A09203203F01F03012101FADC
:1053100003F340F822307047F0B4124B8278D9681A
:10532000467804780E4DC943C1F302210F23C1F121
:105330000407CB40BE401340334304F1604202F502
:1053400061421B01DBB282F800330378012203F0D3
:105350001F015B098A4045F82320F0BC704700BF5D
:1053600000E100E000ED00E0264A038890429BB295
:1053700038D002F50062904234D0B0F1804F31D085
:10538000A2F5983290422DD002F58062904229D049
:105390001D4A90422DD002F58062904229D00A89A0
:1053A00070B423F44073174C4E680D889BB21343BE
:1053B000A0420380C66205850ED0144B98420BD0E4
:1053C00003F54063984207D003F58063984203D009
:1053D00003F58063984201D18B7A038601234361F0
:1053E00070BC70474A8823F070031343064A90420A
:1053F000D1D103800B884A68C262038501234361CF
:10540000704700BF002C01400010004000340140F4
:10541000038829B923F001031B041B0C0380704788
:105420009BB243F001030380704700BFC94389B2B8
:105430000161704742684FF68F73134043604368C1
:1054400019434160704700BF30B5324B324A1A6091
:105450008BB0FEF723F802F0E7FD01214FF08050FA
:10546000FCF790F94FF49870FCF758F90120FFF71A
:10547000FBF94FF0A040FCF7AFFB4FF0A040FCF76A
:10548000B1FB0128F9D002A8FCF790FB002501240C
:1054900002A94FF450724FF480634FF0A040049281
:1054A0000593029503950695079508958DF8244078
:1054B000FCF75CFB2246072302214FF0A040FCF7DB
:1054C00095FB02214FF0A040FCF702FC21464FF073
:1054D000A040FCF7F3FB0823122201A88DF8053049
:1054E0008DF804208DF806508DF80740FFF706FF71
:1054F000224604214FF0A040FCF7F2FB21464FF07A
:10550000A040FCF75FFB4FF0A040FCF7D1FB0BB0D5
:1055100030BD00BF80480020AC48002000B583B0FB
:1055200002A9002341F8043D0E4B186800F0B0FCBE
:10553000019B012B0DD0002204214FF0A040FCF76D
:10554000CFFB04214FF0A040FCF7D4FB03B05DF883
:1055500004FB054B4FF080521A60BFF34F8FBFF32F
:105560006F8FE8E73C51002004ED00E070B5FFF7D5
:105570006BFF02F0E1FC02F039FC0E4C0E4E0125EF
:10558000FAF714FE0021206800F05EFE0128F7D132
:105590000135EDB2012D4FF000014FF0A04006D9CA
:1055A000B38A9BB243F48053B382FCF70BFB02F047
:1055B00061FCE5E72C510020001000480E4B1B68F1
:1055C00082B000220133019208D04FF0500383F3E0
:1055D0001188BFF36F8FBFF34F8FFEE74FF050037B
:1055E00083F31188BFF36F8FBFF34F8F019B002BA5
:1055F000FCD002B0704700BF680100200848006876
:10560000006880F308884FF0000080F3148862B6C9
:1056100061B6BFF34F8FBFF36F8F00DF00BF000095
:1056200008ED00E0DFF80C00016841F47001016052
:105630007047000088ED00E030B421F001014FF028
:105640008075074C40F80C4C6FF0020340F8202C9A
:1056500000E9220040F8243C30BC4438704700BFC9
:10566000BD55000800000000000000000000000020
:10567000074B19680868B0E8F04F80F30988BFF35A
:105680006F8F4FF0000080F311887047AFF30080F8
:10569000F80A00204FF0500383F31188BFF36F8F97
:1056A000BFF34F8F0A4A13680133012B136000D0F8
:1056B0007047084B1B6813F0FF0FF9D04FF05003F1
:1056C00083F31188BFF36F8FBFF34F8FFEE700BFE7
:1056D0006801002004ED00E0084A136843B94FF068
:1056E000500383F31188BFF36F8FBFF34F8FFEE733
:1056F000013B13600BB983F31188704768010020E8
:10570000EFF30980BFF36F8F154B1A681EF0100F6F
:1057100008BF20ED108A20E9F04F10602DE9090044
:105720004FF0500080F31188BFF34F8FBFF36F8F9E
:10573000FFF7C2F84FF0000080F3118809BC196828
:105740000868B0E8F04F1EF0100F08BFB0EC108AE8
:1057500080F30988BFF36F8F704700BFAFF30080FD
:10576000F80A002008B54FF0500383F31188BFF307
:105770006F8FBFF34F8FFEF753FF18B1034B4FF0FE
:1057800080521A60002383F3118808BD04ED00E005
:1057900030B4094A094D0A4B0A4C0B4800211160EC
:1057A00029601B68A4FB03139B09013B07210360CD
:1057B00030BC1160704700BF10E000E018E000E06E
:1057C0003C000020D34D621014E000E03A4B3B4A0D
:1057D0001968914241D01A68394B9A4234D010B5B9
:1057E000384B39491A7882B0FF20D2B20192187032
:1057F0001B78DBB28DF803309DF803309DF8032051
:10580000072003F05003486010060B7048BF0623C2
:1058100001D410E003469DF803205200D2B28DF867
:1058200003209DF80320120603F1FF30F2D4032B6E
:105830004B6025481AD04FF0500383F31188BFF313
:105840006F8FBFF34F8FFEE74FF0500383F3118844
:10585000BFF36F8FBFF34F8FFEE74FF0500383F31B
:105860001188BFF36F8FBFF34F8FFEE70199154C7F
:10587000164AC9B22170116841F4700111601168B3
:105880001B0241F07041116003F4E0634360FFF7D5
:105890007FFF0F4B00241C60FFF7C4FE0D4A136806
:1058A00043F040431360FFF7A9FEFFF705F8FFF749
:1058B00085FE204602B010BD00ED00E071C20F4130
:1058C00070C20F4100E400E0780B002020ED00E002
:1058D0006801002034EF00E0EFF305820F2A11D8B1
:1058E000104B11495A680B6803F4E063934208D9DE
:1058F0004FF0500383F31188BFF36F8FBFF34F8FC7
:10590000FEE770470949074B525C19789142E8D984
:105910004FF0500383F31188BFF36F8FBFF34F8FA6
:10592000FEE700BF780B00200CED00E0F0E300E0A4
:1059300070B51546026C866B044632B905683DBBEE
:105940008068FFF7C1F9A56029E06DB9406804F0EF
:10595000EDFA6168236CA2680B449342636019D32B
:105960002368636028461AE0C06804F0DFFA236CFD
:10597000E26821685B421A448A42E26002D2A2686D
:105980001344E360022D07D146B1013E002006E03A
:10599000104604E0284602E0002000E030460136D0
:1059A000A66370BD026C034672B110B40846D96894
:1059B0009C681144A142D96024BF1968D960D96894
:1059C0005DF8044B04F0B2BA704700BF70B50546ED
:1059D000FFF760FE95F8454064B2002C16DD6B6A57
:1059E000A3B105F1240605E0013CE3B25CB26BB162
:1059F0006B6A5BB13046FFF75FF80028F4D0013CDA
:105A0000FFF7ECF8E3B25CB2002BF1D1FF2385F88D
:105A10004530FFF761FEFFF73DFE95F8444064B264
:105A2000002C16DD2B69A3B105F1100605E0013C41
:105A3000E3B25CB26BB12B695BB13046FFF73CF867
:105A40000028F4D0013CFFF7C9F8E3B25CB2002BA8
:105A5000F1D1FF2385F84430BDE87040FFF73CBE2C
:105A6000F8B540B94FF0500383F31188BFF36F8F3F
:105A7000BFF34F8FFEE7074601FB00F0503015469D
:105A80000E4602F001FC044628B336B300F1500381
:105A90002360E7632664FFF7FDFD226CE36B21685A
:105AA000616003FB02F39A1A0A440B440020FF21B1
:105AB000A063E26084F84410A36084F8451004F108
:105AC0001000FFF7C3FB04F12400FFF7BFFBFFF753
:105AD00003FE84F84C502046F8BD0346D8E700BFCB
